{
  "contractName": "WrappedETCToken",
  "abi": [
    {
      "inputs": [],
      "payable": false,
      "stateMutability": "nonpayable",
      "type": "constructor"
    },
    {
      "anonymous": false,
      "inputs": [
        {
          "indexed": true,
          "internalType": "address",
          "name": "owner",
          "type": "address"
        },
        {
          "indexed": true,
          "internalType": "address",
          "name": "spender",
          "type": "address"
        },
        {
          "indexed": false,
          "internalType": "uint256",
          "name": "value",
          "type": "uint256"
        }
      ],
      "name": "Approval",
      "type": "event"
    },
    {
      "anonymous": false,
      "inputs": [
        {
          "indexed": true,
          "internalType": "address",
          "name": "operator",
          "type": "address"
        },
        {
          "indexed": true,
          "internalType": "address",
          "name": "tokenHolder",
          "type": "address"
        }
      ],
      "name": "AuthorizedOperator",
      "type": "event"
    },
    {
      "anonymous": false,
      "inputs": [
        {
          "indexed": true,
          "internalType": "address",
          "name": "operator",
          "type": "address"
        },
        {
          "indexed": true,
          "internalType": "address",
          "name": "from",
          "type": "address"
        },
        {
          "indexed": false,
          "internalType": "uint256",
          "name": "amount",
          "type": "uint256"
        },
        {
          "indexed": false,
          "internalType": "bytes",
          "name": "data",
          "type": "bytes"
        },
        {
          "indexed": false,
          "internalType": "bytes",
          "name": "operatorData",
          "type": "bytes"
        }
      ],
      "name": "Burned",
      "type": "event"
    },
    {
      "anonymous": false,
      "inputs": [
        {
          "indexed": true,
          "internalType": "address",
          "name": "_owner",
          "type": "address"
        },
        {
          "indexed": false,
          "internalType": "uint256",
          "name": "_value",
          "type": "uint256"
        }
      ],
      "name": "Deposit",
      "type": "event"
    },
    {
      "anonymous": false,
      "inputs": [
        {
          "indexed": true,
          "internalType": "address",
          "name": "operator",
          "type": "address"
        },
        {
          "indexed": true,
          "internalType": "address",
          "name": "to",
          "type": "address"
        },
        {
          "indexed": false,
          "internalType": "uint256",
          "name": "amount",
          "type": "uint256"
        },
        {
          "indexed": false,
          "internalType": "bytes",
          "name": "data",
          "type": "bytes"
        },
        {
          "indexed": false,
          "internalType": "bytes",
          "name": "operatorData",
          "type": "bytes"
        }
      ],
      "name": "Minted",
      "type": "event"
    },
    {
      "anonymous": false,
      "inputs": [
        {
          "indexed": true,
          "internalType": "address",
          "name": "operator",
          "type": "address"
        },
        {
          "indexed": true,
          "internalType": "address",
          "name": "tokenHolder",
          "type": "address"
        }
      ],
      "name": "RevokedOperator",
      "type": "event"
    },
    {
      "anonymous": false,
      "inputs": [
        {
          "indexed": true,
          "internalType": "address",
          "name": "operator",
          "type": "address"
        },
        {
          "indexed": true,
          "internalType": "address",
          "name": "from",
          "type": "address"
        },
        {
          "indexed": true,
          "internalType": "address",
          "name": "to",
          "type": "address"
        },
        {
          "indexed": false,
          "internalType": "uint256",
          "name": "amount",
          "type": "uint256"
        },
        {
          "indexed": false,
          "internalType": "bytes",
          "name": "data",
          "type": "bytes"
        },
        {
          "indexed": false,
          "internalType": "bytes",
          "name": "operatorData",
          "type": "bytes"
        }
      ],
      "name": "Sent",
      "type": "event"
    },
    {
      "anonymous": false,
      "inputs": [
        {
          "indexed": true,
          "internalType": "address",
          "name": "from",
          "type": "address"
        },
        {
          "indexed": true,
          "internalType": "address",
          "name": "to",
          "type": "address"
        },
        {
          "indexed": false,
          "internalType": "uint256",
          "name": "value",
          "type": "uint256"
        }
      ],
      "name": "Transfer",
      "type": "event"
    },
    {
      "anonymous": false,
      "inputs": [
        {
          "indexed": true,
          "internalType": "address",
          "name": "_owner",
          "type": "address"
        },
        {
          "indexed": false,
          "internalType": "uint256",
          "name": "_value",
          "type": "uint256"
        }
      ],
      "name": "Withdrawal",
      "type": "event"
    },
    {
      "payable": true,
      "stateMutability": "payable",
      "type": "fallback"
    },
    {
      "constant": true,
      "inputs": [
        {
          "internalType": "address",
          "name": "holder",
          "type": "address"
        },
        {
          "internalType": "address",
          "name": "spender",
          "type": "address"
        }
      ],
      "name": "allowance",
      "outputs": [
        {
          "internalType": "uint256",
          "name": "",
          "type": "uint256"
        }
      ],
      "payable": false,
      "stateMutability": "view",
      "type": "function"
    },
    {
      "constant": false,
      "inputs": [
        {
          "internalType": "address",
          "name": "spender",
          "type": "address"
        },
        {
          "internalType": "uint256",
          "name": "value",
          "type": "uint256"
        }
      ],
      "name": "approve",
      "outputs": [
        {
          "internalType": "bool",
          "name": "",
          "type": "bool"
        }
      ],
      "payable": false,
      "stateMutability": "nonpayable",
      "type": "function"
    },
    {
      "constant": false,
      "inputs": [
        {
          "internalType": "address",
          "name": "operator",
          "type": "address"
        }
      ],
      "name": "authorizeOperator",
      "outputs": [],
      "payable": false,
      "stateMutability": "nonpayable",
      "type": "function"
    },
    {
      "constant": true,
      "inputs": [
        {
          "internalType": "address",
          "name": "tokenHolder",
          "type": "address"
        }
      ],
      "name": "balanceOf",
      "outputs": [
        {
          "internalType": "uint256",
          "name": "",
          "type": "uint256"
        }
      ],
      "payable": false,
      "stateMutability": "view",
      "type": "function"
    },
    {
      "constant": false,
      "inputs": [
        {
          "internalType": "uint256",
          "name": "amount",
          "type": "uint256"
        },
        {
          "internalType": "bytes",
          "name": "data",
          "type": "bytes"
        }
      ],
      "name": "burn",
      "outputs": [],
      "payable": false,
      "stateMutability": "nonpayable",
      "type": "function"
    },
    {
      "constant": true,
      "inputs": [],
      "name": "decimals",
      "outputs": [
        {
          "internalType": "uint8",
          "name": "",
          "type": "uint8"
        }
      ],
      "payable": false,
      "stateMutability": "pure",
      "type": "function"
    },
    {
      "constant": true,
      "inputs": [],
      "name": "defaultOperators",
      "outputs": [
        {
          "internalType": "address[]",
          "name": "",
          "type": "address[]"
        }
      ],
      "payable": false,
      "stateMutability": "view",
      "type": "function"
    },
    {
      "constant": true,
      "inputs": [],
      "name": "granularity",
      "outputs": [
        {
          "internalType": "uint256",
          "name": "",
          "type": "uint256"
        }
      ],
      "payable": false,
      "stateMutability": "view",
      "type": "function"
    },
    {
      "constant": true,
      "inputs": [
        {
          "internalType": "address",
          "name": "operator",
          "type": "address"
        },
        {
          "internalType": "address",
          "name": "tokenHolder",
          "type": "address"
        }
      ],
      "name": "isOperatorFor",
      "outputs": [
        {
          "internalType": "bool",
          "name": "",
          "type": "bool"
        }
      ],
      "payable": false,
      "stateMutability": "view",
      "type": "function"
    },
    {
      "constant": true,
      "inputs": [],
      "name": "name",
      "outputs": [
        {
          "internalType": "string",
          "name": "",
          "type": "string"
        }
      ],
      "payable": false,
      "stateMutability": "view",
      "type": "function"
    },
    {
      "constant": false,
      "inputs": [
        {
          "internalType": "address",
          "name": "account",
          "type": "address"
        },
        {
          "internalType": "uint256",
          "name": "amount",
          "type": "uint256"
        },
        {
          "internalType": "bytes",
          "name": "data",
          "type": "bytes"
        },
        {
          "internalType": "bytes",
          "name": "operatorData",
          "type": "bytes"
        }
      ],
      "name": "operatorBurn",
      "outputs": [],
      "payable": false,
      "stateMutability": "nonpayable",
      "type": "function"
    },
    {
      "constant": false,
      "inputs": [
        {
          "internalType": "address",
          "name": "sender",
          "type": "address"
        },
        {
          "internalType": "address",
          "name": "recipient",
          "type": "address"
        },
        {
          "internalType": "uint256",
          "name": "amount",
          "type": "uint256"
        },
        {
          "internalType": "bytes",
          "name": "data",
          "type": "bytes"
        },
        {
          "internalType": "bytes",
          "name": "operatorData",
          "type": "bytes"
        }
      ],
      "name": "operatorSend",
      "outputs": [],
      "payable": false,
      "stateMutability": "nonpayable",
      "type": "function"
    },
    {
      "constant": false,
      "inputs": [
        {
          "internalType": "address",
          "name": "operator",
          "type": "address"
        }
      ],
      "name": "revokeOperator",
      "outputs": [],
      "payable": false,
      "stateMutability": "nonpayable",
      "type": "function"
    },
    {
      "constant": false,
      "inputs": [
        {
          "internalType": "address",
          "name": "recipient",
          "type": "address"
        },
        {
          "internalType": "uint256",
          "name": "amount",
          "type": "uint256"
        },
        {
          "internalType": "bytes",
          "name": "data",
          "type": "bytes"
        }
      ],
      "name": "send",
      "outputs": [],
      "payable": false,
      "stateMutability": "nonpayable",
      "type": "function"
    },
    {
      "constant": true,
      "inputs": [],
      "name": "symbol",
      "outputs": [
        {
          "internalType": "string",
          "name": "",
          "type": "string"
        }
      ],
      "payable": false,
      "stateMutability": "view",
      "type": "function"
    },
    {
      "constant": true,
      "inputs": [],
      "name": "totalSupply",
      "outputs": [
        {
          "internalType": "uint256",
          "name": "",
          "type": "uint256"
        }
      ],
      "payable": false,
      "stateMutability": "view",
      "type": "function"
    },
    {
      "constant": false,
      "inputs": [
        {
          "internalType": "address",
          "name": "recipient",
          "type": "address"
        },
        {
          "internalType": "uint256",
          "name": "amount",
          "type": "uint256"
        }
      ],
      "name": "transfer",
      "outputs": [
        {
          "internalType": "bool",
          "name": "",
          "type": "bool"
        }
      ],
      "payable": false,
      "stateMutability": "nonpayable",
      "type": "function"
    },
    {
      "constant": false,
      "inputs": [
        {
          "internalType": "address",
          "name": "holder",
          "type": "address"
        },
        {
          "internalType": "address",
          "name": "recipient",
          "type": "address"
        },
        {
          "internalType": "uint256",
          "name": "amount",
          "type": "uint256"
        }
      ],
      "name": "transferFrom",
      "outputs": [
        {
          "internalType": "bool",
          "name": "",
          "type": "bool"
        }
      ],
      "payable": false,
      "stateMutability": "nonpayable",
      "type": "function"
    },
    {
      "constant": false,
      "inputs": [],
      "name": "deposit",
      "outputs": [],
      "payable": true,
      "stateMutability": "payable",
      "type": "function"
    },
    {
      "constant": false,
      "inputs": [
        {
          "internalType": "uint256",
          "name": "wad",
          "type": "uint256"
        }
      ],
      "name": "withdraw",
      "outputs": [],
      "payable": false,
      "stateMutability": "nonpayable",
      "type": "function"
    }
  ],
  "bytecode": "0x60806040523480156200001157600080fd5b50604080518082018252600a8152695772617070656445544360b01b60208083019182528351808501855260048152635745544360e01b81830152845160008152918201909452825192939290916200006e916002919062000231565b5081516200008490600390602085019062000231565b5080516200009a906004906020840190620002b6565b5060005b600454811015620000fa5760016005600060048481548110620000bd57fe5b6000918252602080832091909101546001600160a01b031683528201929092526040019020805460ff19169115159190911790556001016200009e565b50604080516a22a9219b9b9baa37b5b2b760a91b8152815190819003600b0181206329965a1d60e01b82523060048301819052602483019190915260448201529051731820a4b7618bde71dce8cdc73aab6c95905fad24916329965a1d91606480830192600092919082900301818387803b1580156200017957600080fd5b505af11580156200018e573d6000803e3d6000fd5b5050604080516922a92199182a37b5b2b760b11b8152815190819003600a0181206329965a1d60e01b82523060048301819052602483019190915260448201529051731820a4b7618bde71dce8cdc73aab6c95905fad2493506329965a1d9250606480830192600092919082900301818387803b1580156200020f57600080fd5b505af115801562000224573d6000803e3d6000fd5b5050505050505062000363565b828054600181600116156101000203166002900490600052602060002090601f016020900481019282601f106200027457805160ff1916838001178555620002a4565b82800160010185558215620002a4579182015b82811115620002a457825182559160200191906001019062000287565b50620002b29291506200031c565b5090565b8280548282559060005260206000209081019282156200030e579160200282015b828111156200030e57825182546001600160a01b0319166001600160a01b03909116178255602090920191600190910190620002d7565b50620002b29291506200033c565b6200033991905b80821115620002b2576000815560010162000323565b90565b6200033991905b80821115620002b25780546001600160a01b031916815560010162000343565b61225980620003736000396000f3fe60806040526004361061011f5760003560e01c8063959b8c3f116100a0578063d95b637111610064578063d95b637114610568578063dd62ed3e146105a3578063fad8b32a146105de578063fc673c4f14610611578063fe9d9303146106f15761011f565b8063959b8c3f1461045757806395d89b411461048a5780639bd9bbc61461049f578063a9059cbb1461052f578063d0e30db01461011f5761011f565b80632e1a7d4d116100e75780632e1a7d4d146102cf578063313ce567146102f9578063556f0dc71461032457806362ad1b831461033957806370a08231146104245761011f565b806306e485381461012957806306fdde031461018e578063095ea7b31461021857806318160ddd1461026557806323b872dd1461028c575b610127610773565b005b34801561013557600080fd5b5061013e6107d6565b60408051602080825283518183015283519192839290830191858101910280838360005b8381101561017a578181015183820152602001610162565b505050509050019250505060405180910390f35b34801561019a57600080fd5b506101a3610838565b6040805160208082528351818301528351919283929083019185019080838360005b838110156101dd5781810151838201526020016101c5565b50505050905090810190601f16801561020a5780820380516001836020036101000a031916815260200191505b509250505060405180910390f35b34801561022457600080fd5b506102516004803603604081101561023b57600080fd5b506001600160a01b0381351690602001356108c2565b604080519115158252519081900360200190f35b34801561027157600080fd5b5061027a6108e4565b60408051918252519081900360200190f35b34801561029857600080fd5b50610251600480360360608110156102af57600080fd5b506001600160a01b038135811691602081013590911690604001356108ea565b3480156102db57600080fd5b50610127600480360360208110156102f257600080fd5b5035610a6d565b34801561030557600080fd5b5061030e610aff565b6040805160ff9092168252519081900360200190f35b34801561033057600080fd5b5061027a610b04565b34801561034557600080fd5b50610127600480360360a081101561035c57600080fd5b6001600160a01b03823581169260208101359091169160408201359190810190608081016060820135600160201b81111561039657600080fd5b8201836020820111156103a857600080fd5b803590602001918460018302840111600160201b831117156103c957600080fd5b919390929091602081019035600160201b8111156103e657600080fd5b8201836020820111156103f857600080fd5b803590602001918460018302840111600160201b8311171561041957600080fd5b509092509050610b09565b34801561043057600080fd5b5061027a6004803603602081101561044757600080fd5b50356001600160a01b0316610bdf565b34801561046357600080fd5b506101276004803603602081101561047a57600080fd5b50356001600160a01b0316610bfa565b34801561049657600080fd5b506101a3610d46565b3480156104ab57600080fd5b50610127600480360360608110156104c257600080fd5b6001600160a01b0382351691602081013591810190606081016040820135600160201b8111156104f157600080fd5b82018360208201111561050357600080fd5b803590602001918460018302840111600160201b8311171561052457600080fd5b509092509050610da7565b34801561053b57600080fd5b506102516004803603604081101561055257600080fd5b506001600160a01b038135169060200135610e0f565b34801561057457600080fd5b506102516004803603604081101561058b57600080fd5b506001600160a01b0381358116916020013516610ee8565b3480156105af57600080fd5b5061027a600480360360408110156105c657600080fd5b506001600160a01b0381358116916020013516610f8a565b3480156105ea57600080fd5b506101276004803603602081101561060157600080fd5b50356001600160a01b0316610fb5565b34801561061d57600080fd5b506101276004803603608081101561063457600080fd5b6001600160a01b0382351691602081013591810190606081016040820135600160201b81111561066357600080fd5b82018360208201111561067557600080fd5b803590602001918460018302840111600160201b8311171561069657600080fd5b919390929091602081019035600160201b8111156106b357600080fd5b8201836020820111156106c557600080fd5b803590602001918460018302840111600160201b831117156106e657600080fd5b509092509050611101565b3480156106fd57600080fd5b506101276004803603604081101561071457600080fd5b81359190810190604081016020820135600160201b81111561073557600080fd5b82018360208201111561074757600080fd5b803590602001918460018302840111600160201b8311171561076857600080fd5b5090925090506111d2565b61079e3333346040518060200160405280600081525060405180602001604052806000815250611235565b60408051348152905133917fe1fffcc4923d04b559f4d29a8bfc6cda04eb5b0d3c460751c2402c5c5cc9109c919081900360200190a2565b6060600480548060200260200160405190810160405280929190818152602001828054801561082e57602002820191906000526020600020905b81546001600160a01b03168152600190910190602001808311610810575b5050505050905090565b60028054604080516020601f600019610100600187161502019094168590049384018190048102820181019092528281526060939092909183018282801561082e5780601f106108965761010080835404028352916020019161082e565b820191906000526020600020905b8154815290600101906020018083116108a457509395945050505050565b6000806108cd611460565b90506108da818585611464565b5060019392505050565b60015490565b60006001600160a01b0383166109315760405162461bcd60e51b81526004018080602001828103825260248152602001806121406024913960400191505060405180910390fd5b6001600160a01b0384166109765760405162461bcd60e51b81526004018080602001828103825260268152602001806121b96026913960400191505060405180910390fd5b6000610980611460565b90506109ae81868686604051806020016040528060008152506040518060200160405280600081525061150b565b6109da818686866040518060200160405280600081525060405180602001604052806000815250611752565b610a348582610a2f86604051806060016040528060298152602001612190602991396001600160a01b03808c166000908152600860209081526040808320938b1683529290522054919063ffffffff61196b16565b611464565b610a628186868660405180602001604052806000815250604051806020016040528060008152506000611a02565b506001949350505050565b610a983333836040518060200160405280600081525060405180602001604052806000815250611ca2565b604051339082156108fc029083906000818181858888f19350505050158015610ac5573d6000803e3d6000fd5b5060408051828152905133917f7fcf532c15f0a6db0bd6d0e038bea71d30d808c7d98cb3bf7268a95bf5081b65919081900360200190a250565b601290565b600190565b610b1a610b14611460565b88610ee8565b610b555760405162461bcd60e51b815260040180806020018281038252602c815260200180612164602c913960400191505060405180910390fd5b610bd6610b60611460565b88888888888080601f01602080910402602001604051908101604052809392919081815260200183838082843760009201919091525050604080516020601f8c018190048102820181019092528a815292508a915089908190840183828082843760009201919091525060019250611ecf915050565b50505050505050565b6001600160a01b031660009081526020819052604090205490565b806001600160a01b0316610c0c611460565b6001600160a01b03161415610c525760405162461bcd60e51b81526004018080602001828103825260248152602001806120ae6024913960400191505060405180910390fd5b6001600160a01b03811660009081526005602052604090205460ff1615610cb55760076000610c7f611460565b6001600160a01b03908116825260208083019390935260409182016000908120918516815292529020805460ff19169055610cfc565b600160066000610cc3611460565b6001600160a01b03908116825260208083019390935260409182016000908120918616815292529020805460ff19169115159190911790555b610d04611460565b6001600160a01b0316816001600160a01b03167ff4caeb2d6ca8932a215a353d0703c326ec2d81fc68170f320eb2ab49e9df61f960405160405180910390a350565b60038054604080516020601f600260001961010060018816150201909516949094049384018190048102820181019092528281526060939092909183018282801561082e5780601f106108965761010080835404028352916020019161082e565b610e09610db2611460565b610dba611460565b868686868080601f01602080910402602001604051908101604052809392919081815260200183838082843760009201829052506040805160208101909152908152925060019150611ecf9050565b50505050565b60006001600160a01b038316610e565760405162461bcd60e51b81526004018080602001828103825260248152602001806121406024913960400191505060405180910390fd5b6000610e60611460565b9050610e8e81828686604051806020016040528060008152506040518060200160405280600081525061150b565b610eba818286866040518060200160405280600081525060405180602001604052806000815250611752565b6108da8182868660405180602001604052806000815250604051806020016040528060008152506000611a02565b6000816001600160a01b0316836001600160a01b03161480610f5357506001600160a01b03831660009081526005602052604090205460ff168015610f5357506001600160a01b0380831660009081526007602090815260408083209387168352929052205460ff16155b80610f8357506001600160a01b0380831660009081526006602090815260408083209387168352929052205460ff165b9392505050565b6001600160a01b03918216600090815260086020908152604080832093909416825291909152205490565b610fbd611460565b6001600160a01b0316816001600160a01b0316141561100d5760405162461bcd60e51b81526004018080602001828103825260218152602001806120d26021913960400191505060405180910390fd5b6001600160a01b03811660009081526005602052604090205460ff16156110795760016007600061103c611460565b6001600160a01b03908116825260208083019390935260409182016000908120918616815292529020805460ff19169115159190911790556110b7565b60066000611085611460565b6001600160a01b03908116825260208083019390935260409182016000908120918516815292529020805460ff191690555b6110bf611460565b6001600160a01b0316816001600160a01b03167f50546e66e5f44d728365dc3908c63bc5cfeeab470722c1677e3073a6ac294aa160405160405180910390a350565b61111261110c611460565b87610ee8565b61114d5760405162461bcd60e51b815260040180806020018281038252602c815260200180612164602c913960400191505060405180910390fd5b6111ca611158611460565b878787878080601f01602080910402602001604051908101604052809392919081815260200183838082843760009201919091525050604080516020601f8b018190048102820181019092528981529250899150889081908401838280828437600092019190915250611ca292505050565b505050505050565b6112306111dd611460565b6111e5611460565b8585858080601f016020809104026020016040519081016040528093929190818152602001838380828437600092018290525060408051602081019091529081529250611ca2915050565b505050565b6001600160a01b038416611290576040805162461bcd60e51b815260206004820181905260248201527f4552433737373a206d696e7420746f20746865207a65726f2061646472657373604482015290519081900360640190fd5b6001546112a3908463ffffffff611f9a16565b6001556001600160a01b0384166000908152602081905260409020546112cf908463ffffffff611f9a16565b6001600160a01b0385166000908152602081905260408120919091556112fc908690868686866001611a02565b836001600160a01b0316856001600160a01b03167f2fe5be0146f74c5bce36c0b80911af6c7d86ff27e89d5cfa61fc681327954e5d858585604051808481526020018060200180602001838103835285818151815260200191508051906020019080838360005b8381101561137b578181015183820152602001611363565b50505050905090810190601f1680156113a85780820380516001836020036101000a031916815260200191505b50838103825284518152845160209182019186019080838360005b838110156113db5781810151838201526020016113c3565b50505050905090810190601f1680156114085780820380516001836020036101000a031916815260200191505b509550505050505060405180910390a36040805184815290516001600160a01b038616916000917fddf252ad1be2c89b69c2b068fc378daa952ba7f163c4a11628f55a4df523b3ef9181900360200190a35050505050565b3390565b6001600160a01b0382166114a95760405162461bcd60e51b81526004018080602001828103825260238152602001806122026023913960400191505060405180910390fd5b6001600160a01b03808416600081815260086020908152604080832094871680845294825291829020859055815185815291517f8c5be1e5ebec7d5bd14f71427d1e84f3dd0314c0f7b2291e5b200ac8c7c3b9259281900390910190a3505050565b6040805163555ddc6560e11b81526001600160a01b03871660048201527f29ddb589b1fb5fc7cf394961c1adf5f8c6454761adf795e67fe149f658abe89560248201529051600091731820a4b7618bde71dce8cdc73aab6c95905fad249163aabbb8ca91604480820192602092909190829003018186803b15801561158f57600080fd5b505afa1580156115a3573d6000803e3d6000fd5b505050506040513d60208110156115b957600080fd5b505190506001600160a01b03811615610bd657806001600160a01b03166375ab97828888888888886040518763ffffffff1660e01b815260040180876001600160a01b03166001600160a01b03168152602001866001600160a01b03166001600160a01b03168152602001856001600160a01b03166001600160a01b031681526020018481526020018060200180602001838103835285818151815260200191508051906020019080838360005b8381101561167f578181015183820152602001611667565b50505050905090810190601f1680156116ac5780820380516001836020036101000a031916815260200191505b50838103825284518152845160209182019186019080838360005b838110156116df5781810151838201526020016116c7565b50505050905090810190601f16801561170c5780820380516001836020036101000a031916815260200191505b5098505050505050505050600060405180830381600087803b15801561173157600080fd5b505af1158015611745573d6000803e3d6000fd5b5050505050505050505050565b61179583604051806060016040528060278152602001612065602791396001600160a01b038816600090815260208190526040902054919063ffffffff61196b16565b6001600160a01b0380871660009081526020819052604080822093909355908616815220546117ca908463ffffffff611f9a16565b600080866001600160a01b03166001600160a01b0316815260200190815260200160002081905550836001600160a01b0316856001600160a01b0316876001600160a01b03167f06b541ddaa720db2b10a4d0cdac39b8d360425fc073085fac19bc82614677987868686604051808481526020018060200180602001838103835285818151815260200191508051906020019080838360005b8381101561187b578181015183820152602001611863565b50505050905090810190601f1680156118a85780820380516001836020036101000a031916815260200191505b50838103825284518152845160209182019186019080838360005b838110156118db5781810151838201526020016118c3565b50505050905090810190601f1680156119085780820380516001836020036101000a031916815260200191505b509550505050505060405180910390a4836001600160a01b0316856001600160a01b03167fddf252ad1be2c89b69c2b068fc378daa952ba7f163c4a11628f55a4df523b3ef856040518082815260200191505060405180910390a3505050505050565b600081848411156119fa5760405162461bcd60e51b81526004018080602001828103825283818151815260200191508051906020019080838360005b838110156119bf5781810151838201526020016119a7565b50505050905090810190601f1680156119ec5780820380516001836020036101000a031916815260200191505b509250505060405180910390fd5b505050900390565b6040805163555ddc6560e11b81526001600160a01b03871660048201527fb281fc8c12954d22544db45de3159a39272895b169a852b314f9cc762e44c53b60248201529051600091731820a4b7618bde71dce8cdc73aab6c95905fad249163aabbb8ca91604480820192602092909190829003018186803b158015611a8657600080fd5b505afa158015611a9a573d6000803e3d6000fd5b505050506040513d6020811015611ab057600080fd5b505190506001600160a01b03811615611c4457806001600160a01b03166223de298989898989896040518763ffffffff1660e01b815260040180876001600160a01b03166001600160a01b03168152602001866001600160a01b03166001600160a01b03168152602001856001600160a01b03166001600160a01b031681526020018481526020018060200180602001838103835285818151815260200191508051906020019080838360005b83811015611b75578181015183820152602001611b5d565b50505050905090810190601f168015611ba25780820380516001836020036101000a031916815260200191505b50838103825284518152845160209182019186019080838360005b83811015611bd5578181015183820152602001611bbd565b50505050905090810190601f168015611c025780820380516001836020036101000a031916815260200191505b5098505050505050505050600060405180830381600087803b158015611c2757600080fd5b505af1158015611c3b573d6000803e3d6000fd5b50505050611c98565b8115611c9857611c5c866001600160a01b0316611ff4565b15611c985760405162461bcd60e51b815260040180806020018281038252604d8152602001806120f3604d913960600191505060405180910390fd5b5050505050505050565b6001600160a01b038416611ce75760405162461bcd60e51b815260040180806020018281038252602281526020018061208c6022913960400191505060405180910390fd5b611cf68585600086868661150b565b611d39836040518060600160405280602381526020016121df602391396001600160a01b038716600090815260208190526040902054919063ffffffff61196b16565b6001600160a01b038516600090815260208190526040902055600154611d65908463ffffffff61200016565b600181905550836001600160a01b0316856001600160a01b03167fa78a9be3a7b862d26933ad85fb11d80ef66b8f972d7cbba06621d583943a4098858585604051808481526020018060200180602001838103835285818151815260200191508051906020019080838360005b83811015611dea578181015183820152602001611dd2565b50505050905090810190601f168015611e175780820380516001836020036101000a031916815260200191505b50838103825284518152845160209182019186019080838360005b83811015611e4a578181015183820152602001611e32565b50505050905090810190601f168015611e775780820380516001836020036101000a031916815260200191505b509550505050505060405180910390a36040805184815290516000916001600160a01b038716917fddf252ad1be2c89b69c2b068fc378daa952ba7f163c4a11628f55a4df523b3ef9181900360200190a35050505050565b6001600160a01b038616611f145760405162461bcd60e51b81526004018080602001828103825260228152602001806120436022913960400191505060405180910390fd5b6001600160a01b038516611f6f576040805162461bcd60e51b815260206004820181905260248201527f4552433737373a2073656e6420746f20746865207a65726f2061646472657373604482015290519081900360640190fd5b611f7d87878787878761150b565b611f8b878787878787611752565b610bd687878787878787611a02565b600082820183811015610f83576040805162461bcd60e51b815260206004820152601b60248201527f536166654d6174683a206164646974696f6e206f766572666c6f770000000000604482015290519081900360640190fd5b3b63ffffffff16151590565b6000610f8383836040518060400160405280601e81526020017f536166654d6174683a207375627472616374696f6e206f766572666c6f77000081525061196b56fe4552433737373a2073656e642066726f6d20746865207a65726f20616464726573734552433737373a207472616e7366657220616d6f756e7420657863656564732062616c616e63654552433737373a206275726e2066726f6d20746865207a65726f20616464726573734552433737373a20617574686f72697a696e672073656c66206173206f70657261746f724552433737373a207265766f6b696e672073656c66206173206f70657261746f724552433737373a20746f6b656e20726563697069656e7420636f6e747261637420686173206e6f20696d706c656d656e74657220666f7220455243373737546f6b656e73526563697069656e744552433737373a207472616e7366657220746f20746865207a65726f20616464726573734552433737373a2063616c6c6572206973206e6f7420616e206f70657261746f7220666f7220686f6c6465724552433737373a207472616e7366657220616d6f756e74206578636565647320616c6c6f77616e63654552433737373a207472616e736665722066726f6d20746865207a65726f20616464726573734552433737373a206275726e20616d6f756e7420657863656564732062616c616e63654552433737373a20617070726f766520746f20746865207a65726f2061646472657373a265627a7a723158209728a308837195d06c3d3cf740a99d38bb3eaff23a9216f1a5123a5e76860e2364736f6c63430005100032",
  "source": "pragma solidity ^0.5.0;\n\nimport \"./ERC777.sol\";\n\ncontract WrappedETCToken is ERC777 {\n\n    event Deposit(address indexed _owner, uint _value);\n    event Withdrawal(address indexed _owner, uint _value);\n    \n    constructor () public ERC777(\"WrappedETC\", \"WETC\", new address[](0)) {\n    }\n\n    function() external payable {\n        deposit();\n    }\n\n    function deposit() public payable {\n        super._mint(msg.sender, msg.sender, msg.value, \"\", \"\");\n        emit Deposit(msg.sender, msg.value);\n    }\n\n    function withdraw(uint wad) public {\n        super._burn(msg.sender, msg.sender, wad, \"\", \"\");\n        msg.sender.transfer(wad);\n        emit Withdrawal(msg.sender, wad);\n    }\n}",
  "sourcePath": "/Users/shanejonas/play/WrappedETC/contracts/WrappedETCToken.sol",
  "compiler": {
    "name": "solc",
    "version": "0.5.16+commit.9c3226ce.Emscripten.clang"
  },
  "schemaVersion": "3.0.23",
  "updatedAt": "2020-05-21T02:03:13.699Z",
  "devdoc": {
    "methods": {
      "allowance(address,address)": {
        "details": "See {IERC20-allowance}.     * Note that operator and allowance concepts are orthogonal: operators may not have allowance, and accounts with allowance may not be operators themselves."
      },
      "approve(address,uint256)": {
        "details": "See {IERC20-approve}.     * Note that accounts cannot have allowance issued by their operators."
      },
      "authorizeOperator(address)": {
        "details": "See {IERC777-authorizeOperator}."
      },
      "balanceOf(address)": {
        "details": "Returns the amount of tokens owned by an account (`tokenHolder`)."
      },
      "burn(uint256,bytes)": {
        "details": "See {IERC777-burn}.     * Also emits a {Transfer} event for ERC20 compatibility."
      },
      "decimals()": {
        "details": "See {ERC20Detailed-decimals}.     * Always returns 18, as per the [ERC777 EIP](https://eips.ethereum.org/EIPS/eip-777#backward-compatibility)."
      },
      "defaultOperators()": {
        "details": "See {IERC777-defaultOperators}."
      },
      "granularity()": {
        "details": "See {IERC777-granularity}.     * This implementation always returns `1`."
      },
      "isOperatorFor(address,address)": {
        "details": "See {IERC777-isOperatorFor}."
      },
      "name()": {
        "details": "See {IERC777-name}."
      },
      "operatorBurn(address,uint256,bytes,bytes)": {
        "details": "See {IERC777-operatorBurn}.     * Emits {Burned} and {Transfer} events."
      },
      "operatorSend(address,address,uint256,bytes,bytes)": {
        "details": "See {IERC777-operatorSend}.     * Emits {Sent} and {Transfer} events."
      },
      "revokeOperator(address)": {
        "details": "See {IERC777-revokeOperator}."
      },
      "send(address,uint256,bytes)": {
        "details": "See {IERC777-send}.     * Also emits a {Transfer} event for ERC20 compatibility."
      },
      "symbol()": {
        "details": "See {IERC777-symbol}."
      },
      "totalSupply()": {
        "details": "See {IERC777-totalSupply}."
      },
      "transfer(address,uint256)": {
        "details": "See {IERC20-transfer}.     * Unlike `send`, `recipient` is _not_ required to implement the {IERC777Recipient} interface if it is a contract.     * Also emits a {Sent} event."
      },
      "transferFrom(address,address,uint256)": {
        "details": "See {IERC20-transferFrom}.    * Note that operator and allowance concepts are orthogonal: operators cannot call `transferFrom` (unless they have allowance), and accounts with allowance cannot call `operatorSend` (unless they are operators).    * Emits {Sent}, {Transfer} and {Approval} events."
      }
    }
  },
  "userdoc": {
    "methods": {}
  }
}